:100000000C9475050C949D050C949D050C949D0510
:100010000C949D050C949D050C949D050C949D05D8
:100020000C949D050C949D050C9490070C94680C01
:100030000C949D050C949D050C949D050C949D05B8
:100040000C949D050C949D050C949D050C949D05A8
:100050000C949D050C949D050C949D050C9493089F
:100060000C949D050C949D050C949D050C949D0588
:100070000C949D050C949D050C949D050C949D0578
:100080000C949D050C949D050C949D050C949D0568
:100090000C949D050C949D050C949D050C949D0558
:1000A0000C949D050C949D050C949D05F0F89C8E78
:1000B0008783878E9CF8F00000FEFF030303030391
:1000C000070EFCF80000FEFF0303030303070EFC0A
:1000D000F80000FFFF00000000000000FFFF00002C
:1000E000FEFF8383838383C7EE7C380000F8FC0E19
:1000F00007030303070EFCF800003F7FE0C0808089
:10010000C0E07F3FFFFF01010101010101FFFF008E
:1001100000FFFF0C0C0C0C1C3E77E3C100007FFFBE
:10012000C0C0C0C0C0E0703F1F00001F3F70E0C0F3
:10013000C0C0E0703F1F00007FFFC1C1C1C1C1E36B
:10014000773E1C00001F3F70E0C0C0C0E0703F1F42
:10015000000000000001FFFF01000000D5F08D1439
:10016000A1C881CFD9F1AF2000080800000000002D
:100170000000001C3E3FDFDF2F3E1C000F297909E5
:100180000F00000006192171211E0000387F771B27
:100190003000000018244F4324180048A890780C21
:1001A0000E070000385D5E6C380000003C7A5F5F2F
:1001B0007638000246EBF7F7EB47F50038C42A5EC5
:1001C0007FAF7F0000003F4C3978C408080808085A
:1001D000080808EEE0EE0EEEE0EE0E20747EBFBFE3
:1001E0005E74200047557D050700000C1A3A6A2E00
:1001F0001E0C00003C0E1E1E0E3C000038444F47F3
:100200004438000C0A097F7F090A0C0466F55EB0C9
:100210003020000EDB5F0B6FBFC68C0246FBF7F78A
:10022000FB47F51B877EBC70C00000237F1F063C88
:10023000708000000000070C08080855115544554F
:10024000115544E000F000F800FCFC000007557D6B
:1002500007000040686C6C0C6C6000007C6E0E0E39
:100260006E7C000018644F4764180080F84C26121A
:100270000A06030C0E46E3E3B35E0C0046ED777707
:10028000EB4600004EF3E3E3F34F0100C0E0303CE7
:10029000FEFFFF00E0311327AD437F080808F80890
:1002A00008080866666666CCCCCCCCFFFFE0FEC0D2
:1002B000FC80F8000F497D090F0000001C2E2E362F
:1002C0001C0000807C0E3F3F0E7C8000003C4F47AE
:1002D0003C000000606010080604004026AB7F3F31
:1002E000EB26400047EA7676EA4700064FEB7F7F31
:1002F000EB4F06FF3D3EFEF6EC78E059A7AB2F67CB
:1003000045820108080C0700000000CCCCCCCC666C
:10031000666666FC9A9AFAFAFAFAAC040C487C7C97
:100320004C0404003E5F55555D5F0000003E1F7E9B
:100330003F7E0000387D7B7A7C380000206010080A
:1003400004020030780E1C0E38700000062B377740
:100350007B5600E0F0C880C66F7FF9010303F934D3
:100360001A0703000000FF0000000000000000006A
:1003700000000066CC663366CC6633007E57577744
:100380005F7E00006E4D5D5D4D6E00003E5F57511B
:100390005D5F000040607E3E7E060030287C3C1C95
:1003A0000F020000067E060E1E0E000B868AFFFC62
:1003B000F8E0000046EB5F5FEB4600F8EC1CD8F07D
:1003C000E074B81F3B3D6081010100000000F0189F
:1003D000080808000000000000000042243C72D31E
:1003E0003D27C3204C1A969A4E4C00006F41434360
:1003F000416F0000080C6E3B180800007070787E9A
:100400001E7E00001C1A7E761E1C000000107F7EDF
:10041000100000281C2E3E3E3C2020004EEBF7F73B
:10042000EB4E00008CC666F77FB9FC050F150B027A
:10043000184F610808080F080808080000000000AD
:10044000000000003C7E7E0E1E3C00000D3E7E7CC7
:100450003C5A2000307A7D7D7A30000060607E0654
:10046000060400000E737E7E730E000C3E3E3C3A86
:100470003C3A0C000A0E7F0E0A0000113B1F060ECC
:100480001F5B310046EBF7F7EB4600F535EFEDDB90
:10049000879D3A3E3F070367BF1E0A080818F00011
:1004A00000000000000000000000000870001C06B2
:1004B000C020000007557D05070000003C7E424239
:1004C0003C00000C1E3E7C2E160C00001C667C7C42
:1004D000661C000030787E310206041C3E1CFE1CA7
:1004E0003E1C000070BCFFFCBE70000046EB77773E
:1004F000EB46000000050F0F15274F000264B4AC57
:10050000A8FCFE080808FF00000000000000000032
:10051000000000070E0C384C0E0600000007657D39
:1005200007000000505000145440000E3E7E7E42F2
:10053000320E00001C244F47241C00001824564E85
:100540003F0300402C183C2E070300346EAB1F9F66
:10055000AB6E34004EEB7777EB4E009FFDF9E286F1
:100560007C3800CFD7EB7978300000000000FF081E
:100570000808080000000000000000000000000063
:100580003E5B4F5B3E3E6B4F6B3E1C3E7C3E1C1801
:100590003C7E3C181C577D571C1C5E7F5E1C00185F
:1005A0003C1800FFE7C3E7FF0018241800FFE7DB53
:1005B000E7FF30483A060E2629792926407F0505AF
:1005C00007407F05253F5A3CE73C5A7F3E1C1C08EC
:1005D000081C1C3E7F14227F22145F5F005F5F06B1
:1005E000097F017F006689956A606060606094A2FF
:1005F000FFA29408047E040810207E201008082A18
:100600001C08081C2A08081E101010100C1E0C1EB6
:100610000C30383E3830060E3E0E0600000000005A
:1006200000005F00000007000700147F147F1424FF
:100630002A7F2A1223130864623649562050000884
:10064000070300001C2241000041221C002A1C7FDD
:100650001C2A08083E0808008070300008080808B6
:1006600008000060600020100804023E5149453E29
:1006700000427F400072494949462141494D3318A3
:1006800014127F1027454545393C4A4949314121DB
:100690001109073649494936464949291E000014BF
:1006A0000000004034000000081422411414141407
:1006B00014004122140802015909063E415D594EB9
:1006C0007C1211127C7F494949363E414141227FCB
:1006D0004141413E7F494949417F090909013E4164
:1006E0004151737F0808087F00417F41002040414D
:1006F0003F017F081422417F404040407F021C029E
:100700007F7F0408107F3E4141413E7F0909090671
:100710003E4151215E7F0919294626494949320344
:10072000017F01033F4040403F1F2040201F3F40CA
:1007300038403F6314081463030478040361594983
:100740004D43007F414141020408102000414141D6
:100750007F040201020440404040400003070800BB
:1007600020545478407F284444383844444428383E
:100770004444287F385454541800087E090218A4B1
:10078000A49C787F0804047800447D400020404009
:100790003D007F1028440000417F40007C04780425
:1007A000787C080404783844444438FC182424181D
:1007B00018242418FC7C08040408485454542404C5
:1007C000043F44243C4040207C1C2040201C3C40F2
:1007D00030403C44281028444C9090907C44645411
:1007E0004C44000836410000007700000041360804
:1007F0000002010204023C2623263C1EA1A1611234
:100800003A4040207A385454555921555579412160
:1008100054547841215554784020545579400C1E49
:1008200052721239555555593954545459395554F1
:1008300054580000457C410002457D420001457C42
:1008400040F0292429F0F0282528F07C5455450053
:100850002054547C547C0A097F4932494949323238
:1008600048484832324A4848303A4141217A3A426F
:10087000402078009DA0A07D39444444393D40404B
:10088000403D3C24FF2424487E4943662B2FFC2F07
:100890002BFF0929F620C0887E0903205454794192
:1008A0000000447D413048484A32384040227A00B6
:1008B0007A0A0A727D0D19317D2629292F282629C9
:1008C00029292630484D402038080808080808081B
:1008D00008382F10C8ACBA2F102834FA00007B005B
:1008E0000008142A142222142A14089500220095C4
:1008F000AA005500AAAA55AA55AA000000FF001098
:100900001010FF00141414FF001010FF00FF10104F
:10091000F010F0141414FC001414F700FF0000FF92
:1009200000FF1414F404FC141417101F10101F10EF
:100930001F1414141F00101010F0000000001F10EE
:100940001010101F10101010F010000000FF1010F9
:1009500010101010101010FF10000000FF14000005
:10096000FF00FF00001F10170000FC04F414141710
:1009700010171414F404F40000FF00F714141414F6
:10098000141414F700F7141414171410101F101F68
:10099000141414F4141010F010F000001F101F00B5
:1009A00000001F14000000FC140000F010F01010F4
:1009B000FF10FF141414FF141010101F000000008B
:1009C000F010FFFFFFFFFFF0F0F0F0F0FFFFFF007F
:1009D00000000000FFFF0F0F0F0F0F384444384492
:1009E0007C2A2A3E147E02020606027E027E0263F2
:1009F000554941633844443C04407E201E20060291
:100A00007E020299A5E7A5991C2A492A1C4C72016D
:100A1000724C304A4D4D303048784830BC625A46AE
:100A20003D3E494949007E0101017E2A2A2A2A2A9F
:100A300044445F444440514A444040444A51400089
:100A400000FF0103E080FF000008086B6B0836120E
:100A5000362436060F090F06000018180000001093
:100A600010003040FF0101001F01011E00191D1779
:100A700012003C3C3C3C0000000000080B0002025D
:100A80000201000904000001020200000524001018
:100A900001052401010104240206052406000107C2
:100AA00005810310004009040100020A000000074C
:100AB000050202400000070583024000000403090C
:100AC0000412010002EF02014041233680000101BF
:100AD00002030141726475696E6F204C4C43004102
:100AE000726475626F790000101311241FBECFEF7E
:100AF000DAE0DEBFCDBF11E0A0E0B1E0EAE9F9E263
:100B000002C005900D92AE34B107D9F727E0AEE4EC
:100B1000B1E001C01D92AC3DB207E1F715E0C5E7B9
:100B2000D5E004C02197FE010E94C014C437D1074C
:100B3000C9F70E94980E0C94CB140C940000FC0191
:100B400080915C03811103C08FEF9FEF08959FB7E1
:100B5000F89482E08093E9002091F20030E01216D0
:100B6000130614F421E030E02115310559F02898DE
:100B700084E680935B038091F10080838091F20092
:100B8000882319F09FBFC90108958BE68093E80080
:100B9000F9CF2FB7F89483E08093E9009091E800B3
:100BA000892F807295FF04C09091F20080E4891B28
:100BB0002FBF0895CF93DF931F92CDB7DEB7698320
:100BC000DC01ED91FC910280F381E02D41E050E0E9
:100BD000BE016F5F7F4F09950F90DF91CF91089510
:100BE00083E08093E9008091F200882319F08AE382
:100BF0008093E80008950E94C90590E00895CF937E
:100C0000DF931F92CDB7DEB7FC018485958597FDF4
:100C100005C02FEF3FEF358724870BC0CE0101962B
:100C20000E949F05019719F4898190E002C08FEF1F
:100C30009FEF0F90DF91CF9108950F931F93CF9364
:100C4000DF931F92CDB7DEB78C01FC0184859585BB
:100C500097FF0EC0CE0101960E949F05019719F4DF
:100C6000298130E002C02FEF3FEFF801358724875C
:100C7000F801848595850F90DF91CF911F910F9199
:100C80000895FC018485958597FD0BC09FB7F89466
:100C900082E08093E9008091F2009FBF90E001968E
:100CA00008959FB7F89482E08093E9008091F20064
:100CB0009FBF90E008958F929F92AF92BF92CF9284
:100CC000DF92EF92FF920F931F93CF93DF935C011C
:100CD0006B017A0180910701882309F45BC0809140
:100CE0005C03882309F456C080915A0380FF05C035
:100CF0008091E00082608093E000E70110E00AEF5D
:100D000083E0882E9AE3992E2097D9F10E94C90595
:100D100081110AC0015009F43DC061E070E080E03B
:100D200090E00E945908F0CF282F30E0C217D30777
:100D30000CF48C2F4FB7F8948092E9009091E80062
:100D400095FF1DC0282F30E0C21BD30BF601982F52
:100D5000915020F081918093F100FACFC20ED31E02
:100D6000112319F09092E80009C08091E80085FDF8
:100D700006C09092E80011E0209709F010E04FBF04
:100D8000C3CF1111C3CF5D9884E6809374071E14FE
:100D90001F0444F081E090E0F5019383828380E0BA
:100DA00090E001C0C701DF91CF911F910F91FF909B
:100DB000EF90DF90CF90BF90AF909F908F9008956D
:100DC000009769F0FC0101900020E9F73197AF012D
:100DD000481B590BBC018DE597E00C94020880E09C
:100DE00090E008958F929F92AF92BF920F931F93BE
:100DF000CF93DF93CDB7DEB7A1970FB6F894DEBFE0
:100E00000FBECDBF19A2423008F44AE08E010F5D3B
:100E10001F4F842E912CA12CB12CA50194010E946E
:100E20006714E62FB901CA0101501109EA3014F420
:100E3000E05D01C0E95CD801EC93232B242B252B2A
:100E400061F7C8010E94E006A1960FB6F894DEBFD4
:100E50000FBECDBFDF91CF911F910F91BF90AF908B
:100E60009F908F900895CF92DF92EF92FF92CF9351
:100E7000DF936B017C01E0915D07F0915E070190CB
:100E8000F081E02D6DE28DE597E00995EC01662794
:100E90007727CB016C197D098E099F094AE00E94D2
:100EA000F2068C0F9D1FDF91CF91FF90EF90DF90A6
:100EB000CF90089580E0EDE5F3E081118FEF0024FD
:100EC00081938193819381930394D1F7EDE5F7E0CA
:100ED000128A118A108A17860895EDE5F3E0A0E0E2
:100EE000B8E000800EBC8111012C1197A0FDFDCF50
:100EF0000192B9F70DB408958091790781110DC061
:100F000082E08093750784E08093760710927807DB
:100F10001092770781E08093790785E797E008953D
:100F20001F920F920FB60F9211248F939F9380916F
:100F3000E1009091E100937F9093E10083FF0FC067
:100F40001092E90091E09093EB001092EC0092E394
:100F50009093ED0010925C0398E09093F00082FF74
:100F600020C093E09093E9009091F200992319F04A
:100F70009AE39093E80090917407992339F0909147
:100F80007407915090937407992389F190915B03B2
:100F9000992339F090915B03915090935B039923CF
:100FA00041F184FF10C08091E2008E7E81608093C9
:100FB000E2008091E1008F7E8093E10080915A03EE
:100FC0008E7E806111C080FF16C08091E2008E7E0F
:100FD00080618093E2008091E1008E7E8093E10049
:100FE00080915A038E7E816080935A0304C05D9A7B
:100FF000CDCF289AD6CF9F918F910F900FBE0F9093
:101000001F901895CF92DF92EF92FF920F931F934C
:10101000CF93DF936C017A018B01C0E0D0E0CE1555
:10102000DF0589F0D8016D918D01D601ED91FC911C
:101030000190F081E02DC6010995892B11F47E0104
:1010400002C02196ECCFC701DF91CF911F910F9184
:10105000FF90EF90DF90CF9008950895089580E07D
:1010600090E008950E94C6143FB7F8948091D2078B
:101070009091D307A091D407B091D50726B5A89B2E
:1010800005C02F3F19F00196A11DB11D3FBFBA2F1A
:10109000A92F982F8827820F911DA11DB11DBC017A
:1010A000CD0142E0660F771F881F991F4A95D1F73F
:1010B00008958F929F92AF92BF92CF92DF92EF925C
:1010C000FF926B017C010E9434084B015C01C1144A
:1010D000D104E104F104F1F00E943408DC01CB01F9
:1010E00088199909AA09BB09883E9340A105B10551
:1010F00070F321E0C21AD108E108F10888EE880EE9
:1011000083E0981EA11CB11CC114D104E104F104B8
:1011100019F7DDCFFF90EF90DF90CF90BF90AF90A9
:101120009F908F9008951F920F920FB60F921124E7
:101130002F933F938F939F93AF93BF9380914E01D3
:1011400090914F01A0915001B09151013091D10780
:1011500023E0230F2D3720F40196A11DB11D05C0FA
:1011600026E8230F0296A11DB11D2093D10780937D
:101170004E0190934F01A0935001B0935101809183
:10118000D2079091D307A091D407B091D5070196CB
:10119000A11DB11D8093D2079093D307A093D407CC
:1011A000B093D507BF91AF919F918F913F912F91B0
:1011B0000F900FBE0F901F9018954F925F927F92E5
:1011C0008F929F92AF92BF92CF92DF92EF92FF9257
:1011D0000F931F93CF93DF9300D000D0CDB7DEB72E
:1011E00029011C2DA02EB12C9C012A0D3B1D12168D
:1011F00013060CF0B3C1803891050CF0AFC1FB01B0
:10120000EE0DF11D1E161F060CF0A8C1603471050D
:101210000CF0A4C14115510509F4A0C1E62FE770F7
:10122000FE2EFB0177FD3796A3E0F595E795AA958D
:10123000E1F7AE2F77FF04C0FF2011F0AFEFAE0F44
:1012400097FF05C0EE27FF27E81BF90B02C0E0E07F
:10125000F0E02038310524F020E8722E781A01C021
:10126000702E7E1A6A2F0A2E000C770BAF3F1CF4EB
:10127000D62ED09401C0D12C21E03E2D377009F438
:1012800020E0E694E694E694E20E6E0D711D69305E
:1012900071051CF028E0E22EEA1AED183D2D3A0FF8
:1012A000DC0120E83203A00DB11D1124AE0FBF1FD9
:1012B000D09EE00DF11D11244E0F5F1F81E090E0E4
:1012C0004C010F2C02C0880C991C0A94E2F71330D1
:1012D00009F403C1A0F4113009F4B5C0123009F0CB
:1012E0003DC18FEF889DB001899D700D11246095DF
:1012F00070957C836B835C802E2D230F2BC01A3F4F
:1013000031F01B3F09F02AC12E2D230F88C02E2D4E
:10131000230F51C0FA01E00FF11FE491E89D600135
:10132000E99DD00C1124DA82C98237FD07C0FC0187
:10133000E080EE2DE623CE2AFC01C082F11013C01E
:101340000F5F1F4F0196071528F33F5F4A0D5B1D86
:10135000A058BF4F321709F401C1CD01835A9C4FE9
:1013600000E010E0F0CF37305CF7FC01E058FF4FB1
:10137000D080D520CA80DC28D082E2CFFA01E60FE7
:10138000F71FE491E89D8001E99D100D11241A8357
:10139000098337FD04C0FC011081012B0083F1108B
:1013A00013C06F5F7F4F0196671540F33F5F4A0D93
:1013B0005B1DA058BF4F321709F4D0C0CD01835A2E
:1013C0009C4F60E070E0F0CF37305CF78C01005844
:1013D0001F4FF801E080EA81EE2AF801E082E1CFB8
:1013E000FA01E00FF11FE491E89DC001E99D900D25
:1013F00011249A83898337FD05C08095FB01908174
:1014000089238083F11014C00F5F1F4F6F5F7F4FE0
:10141000071530F33F5F4A0D5B1DA058BF4F3217D1
:1014200009F49CC0BD01635A7C4F00E010E0F0CF8E
:10143000373054F7FB01E058FF4F8A818095908147
:1014400089238083E1CFC2018E0F9F1F2E2D230F92
:10145000321709F483C0BD01635A7C4F6B0100E071
:1014600010E0071590F5FC01E00FF11FE491E89DF5
:10147000B001E99D700D1124609570957C836B839C
:10148000FA01E00FF11FE491E89D2001E99D500C65
:1014900011245A82498237FD05C0F6017081672305
:1014A000462A4082FF2059F037304CF4F601E058CC
:1014B000FF4F70816C8167237A81672B60830F5F98
:1014C0001F4FFFEFCF1ADF0ACCCF3F5F4A0D5B1DE6
:1014D0008A0D9B1DA058BF4FBBCFC72CD12CE40F4A
:1014E000F51FA35ABC4F60E870E06C197D09AC1879
:1014F000BD088501000F111F572D2E2DCF93DF93AF
:10150000ED01EF96EF962296A590C590FF2059F039
:10151000A89C5001C89C600137302CF4E880D0941E
:10152000ED20EB28E99233233AF0EC90C094EC20C4
:10153000EA28ED920C949D0A11965A9529F72A955E
:1015400051F0572D33951124E00FF11DA60FB11D59
:10155000C60FD11DD9CFDF91CF9111240F900F90DD
:101560000F900F90DF91CF911F910F91FF90EF900F
:10157000DF90CF90BF90AF909F908F907F905F90C3
:101580004F9008952D9A0895BC0180E090E00C944E
:1015900059088FB18095807F669B88601C9B846012
:1015A000089590E1282F81E061FD84E060FD880FBF
:1015B00062FD8295687F969FD0011124A20FA35AE5
:1015C000BC4F9C91982B40FF98279C9308952F9295
:1015D0003F924F925F926F927F928F929F92AF92C3
:1015E000BF92CF92DF92EF92FF920F931F93CF9310
:1015F000DF93CDB7DEB727970FB6F894DEBF0FBEE7
:10160000CDBFFC016A3069F425898189928938E06F
:10161000239F800D911D1124928B818B108A178638
:10162000A6C06D3009F4A3C09F838E8335882489BA
:10163000298333893A8361887288E784F08880E857
:10164000E816F104C4F0AE81BF8155962C915597F0
:10165000422F50E01F968D919C915097B6E02B9FA2
:10166000800D911D1124EE81FF81908B8787268943
:10167000211167C07CC0F0E46F16710424F7C70124
:1016800025E0329E800D911D112418161906DCF6F6
:10169000432C512CC30138E0339E800D911D112441
:1016A0001816190684F685E0689F800111240558F4
:1016B0001A4F20E0F8012490253009F4212C430131
:1016C00058E020FC02C0398101C03A8131110BC0C1
:1016D000F9818A81F81307C026945150840C951C17
:1016E0005111EFCF25C067018C2D8E198315A0F7FE
:1016F00054018A2D88198315B8F490E8C916D104CD
:1017000078F4A0E4AA16B10458F4432FB501C60139
:101710002C833B835D830E94D10A5D813B812C81B8
:10172000BFEFAB1ABB0AE5CFEFEFCE1ADE0ADCCF74
:101730002F5FE40CF51C0F5F1F4F263009F0BACF66
:1017400082CF6AEF64039001659F300D1124205809
:101750003F4F281739075CF4AE81BF81ED91FC91B2
:1017600011970190F081E02D6AE0CD01099581E0AB
:1017700090E027960FB6F894DEBF0FBECDBFDF9185
:10178000CF911F910F91FF90EF90DF90CF90BF907E
:10179000AF909F908F907F906F905F904F903F9011
:1017A0002F9008950C941F144091DA075091DB0795
:1017B0002091D8073091D90742175307B4F490917C
:1017C000E8009570E1F39091E80092FD19C08093D4
:1017D000F1008091DA079091DB0701968F739927CA
:1017E000892B19F48EEF8093E8008091DA079091AD
:1017F000DB0701969093DB078093DA0781E0089579
:1018000080E00895DF92EF92FF920F931F93CF93A2
:10181000DF93D82E8A017B01E40EF51EEB01CE1575
:10182000DF0571F0D7FE03C0FE01849101C08881FD
:101830000E94D40B21968111F2CF8FEF9FEF01C050
:10184000C801DF91CF911F910F91FF90EF90DF9032
:101850000895615030F02091F100FC012083019641
:10186000F8CF289884E680935B0308950F931F9325
:10187000CF93DF931F92CDB7DEB782E0898342E436
:1018800050E06BE77AE080E80E94020C0E947C073F
:10189000DC0112960D911C9113970115110569F049
:1018A000D801ED91FC910280F381E02DBE016F5FC4
:1018B0007F4FC801099597FF07C089810F90DF917D
:1018C000CF911F910F910895F80100851185E5CF03
:1018D0001F920F920FB60F921124CF92DF92EF92C8
:1018E000FF920F931F932F933F934F935F936F93A9
:1018F0007F938F939F93AF93BF93EF93FF93CF9378
:10190000DF93CDB7DEB76C97DEBFCDBF1092E90095
:101910008091E80083FFEDC168E0CE0145960E940A
:10192000290C82EF8093E8008D8987FF05C0909194
:10193000E80090FFFCCF03C09EEF9093E800982F43
:10194000907609F0C6C09E892F89188D91110CC020
:10195000803829F48091D7078093F10002C010925B
:10196000F1001092F10048C1422F50E0512B91300C
:1019700051F4811141C14130510509F03DC18091BF
:10198000D7078D7F0BC0933061F4811135C1413091
:10199000510509F031C18091D70782608093D70744
:1019A0002BC1953041F48091E80080FFFCCF206886
:1019B0002093E30021C1963009F05FC0EB8CFC8CD2
:1019C0001092E9001092DB071092DA07123091F5BD
:1019D0001092D9071092D8070E94360C99E0BE01E8
:1019E0006F5F7F4FDB01E92F1D92EA95E9F799833D
:1019F0001A8391E09E8390EA98879AEF99872091C5
:101A0000DA073091DB07275F3F4F3C832B838D83C1
:101A10001092E9001092DB071092DA07F092D907D2
:101A2000E092D80749E050E080E00E94020C0E945A
:101A3000360CE2C0F092D907E092D8070E947C07EA
:101A4000DC011296ED90FC901397E114F10409F477
:101A5000C0C0D701ED91FC910480F581E02DBE015D
:101A60006B5E7F4FC7010995009719F00CF0C4C059
:101A7000C7C0F701E084F184E8CF973009F4C0C013
:101A8000983021F481E08093F100B6C0993009F0DC
:101A9000B3C0837009F0B4C0E7E3F1E081E021E076
:101AA00036E39081992361F08093E9002093EB0065
:101AB00091919093EC003093ED008F5F873089F720
:101AC0008EE78093EA001092EA008F8980935C038E
:101AD00093C08B8D9C8D1092E9001092DB071092C1
:101AE000DA079093D9078093D807898D811156C062
:101AF0008E899D89913A59F4813209F081C047E07D
:101B000050E060E071E080E00E94020C75C091320C
:101B100009F076C0833289F4888D90E0982F882769
:101B20002F89822BA0E0B0E08093080190930901F7
:101B3000A0930A01B0930B015FC0803269F48091D9
:101B4000E80082FFFCCF67E080E091E00E94290C72
:101B50008BEF8093E80006C0823209F04DC08F8978
:101B6000809307018091D607882319F0EEEFFAE001
:101B700002C0E0E0F8E08091000190910101A091A5
:101B80000201B0910301803B9440A105B10509F029
:101B90007BC08091070180FF93C076C00E947C07C4
:101BA000DC0112960D911C9113970115110541F15D
:101BB000D801ED91FC910190F081E02DBE016B5EAA
:101BC0007F4FC8010995811117C0F8010085118563
:101BD000ECCF113009F44EC0133091F48F89882373
:101BE00009F445C0823081F440E867E08FED9AE067
:101BF0000E948613882321F08EEF8093E80079C03D
:101C000081E28093EB0075C0813029F440E86BE0FD
:101C100083ED9AE0EDCF833099F70E947C07DC01D9
:101C20001296ED90FC9013978E010F5F1F4F680185
:101C3000E114F10479F0D701ED91FC910680F78170
:101C4000E02DB801C7010995080F111DF701E084C7
:101C5000F184EECFD8011C92F60101900020E9F743
:101C60003197BF016C197D0940E0C601C1CF6DEB12
:101C70007AE002C061EC7AE06115710509F2FB01BE
:101C8000449150E080E840CF0FB6F894A895809139
:101C90006000886180936000109260000FBEA8957C
:101CA000EE3F2AE0F20739F08091FE0A9091FF0A98
:101CB00091838083A1CF1092FF0A1092FE0A9CCFDD
:101CC000EE3F8AE0F80731F0808191819093FF0A1E
:101CD0008093FE0A87E797E7918380839BE088E102
:101CE0000FB6F894A895809360000FBE90936000A3
:101CF00083CF6C960FB6F894DEBF0FBECDBFDF91D9
:101D0000CF91FF91EF91BF91AF919F918F917F9173
:101D10006F915F914F913F912F911F910F91FF9084
:101D2000EF90DF90CF900F900FBE0F901F901895FF
:101D3000CF93DF9300D000D000D0CDB7DEB778943A
:101D400084B5826084BD84B5816084BD85B58260C0
:101D500085BD85B5816085BD80916E008160809371
:101D60006E001092810080918100826080938100DA
:101D700080918100816080938100809180008160EA
:101D80008093800080919100826080939100809187
:101D90009100816080939100809190008160809398
:101DA00090008091C10084608093C1008091C10047
:101DB00082608093C1008091C10081608093C100E6
:101DC0008091C30081608093C3008091C0008260D5
:101DD0008093C0008091C20081608093C200809196
:101DE0007A00846080937A0080917A008260809388
:101DF0007A0080917A00816080937A0080917A00E5
:101E0000806880937A0010925C031092D70710923A
:101E10005A038091D70081608093D70080EA809335
:101E2000D80089B5806189BD89B5826089BD09B452
:101E300000FEFDCF61E070E080E090E00E94590874
:101E40008091D8008F7C80618093D8008091E000E1
:101E5000807F8093E0008091E1008E7E8093E1009E
:101E60008DE08093E200559A209AEEEFFFE785918E
:101E700094918B3F9C4D19F481E08093D60781ECBF
:101E800080937C0085B1806F85B984B1877E84B9E9
:101E900084B1876E84B95E9A5F988AB1806D8AB981
:101EA000769A6E9881B3806F81BB899880B38D706C
:101EB00080BB80E58CBD81E08DBD85E090E00E9417
:101EC000C40A5F9A85E090E00E94C40A5E985C981C
:101ED000ECE5F1E08DE08E0F94919EBD00000DB415
:101EE00007FEFDCF31968E13F7CF5C9A81E8809381
:101EF00064008091650081608093650080E00E94AD
:101F00006D070E94C90A87FF24C05C9885EA8EBDD0
:101F100000000DB407FEFDCF5C9A2E982F982D98E7
:101F20008091640080628093640081E083BF889523
:101F300013BEFCCF2D980E94C90A8478843871F0B2
:101F40000E94C90A8471843131F188EC90E00E94CA
:101F5000C40A0E94C90A82FDEDCF3AC00E94C20A9B
:101F600088EC90E00E94C40A2F9882E090E00E94E2
:101F70001F148F3F29F06FEF82E090E00E9427143A
:101F800084EF91E00E94C40A2F9A0E94C90A8478C3
:101F90008438D9F3D5CF0E94C20A88EC90E00E9421
:101FA000C40A2E9882E090E00E941F14882329F032
:101FB00060E082E090E00E94271484EF91E00E94AC
:101FC000C40A2E9A0E94C90A84718431D9F3BDCF04
:101FD0000E94C20A82E090E00E941F14882331F020
:101FE0003E9A3F9A81E08093520104C010925201C0
:101FF0003E983F9881E090E00E94D20B82FB9924AA
:1020000090F881FF92C091102E9810EF412E552428
:102010005A9408E010E00E94C90A86FF04C02E9A74
:102020002F9A2D9A82C0992031F034E04316510442
:1020300011F42E9A2F9881E00E946D07920157FEAD
:1020400004C0222733272419350927703327C201FA
:1020500057FC0796B3E095958795BA95E1F757FE3B
:1020600005C00197A801421B530B9A017C01F6940D
:10207000FE2CEE24F794E79460E070E03801621AD9
:10208000730AF701E058FF4F5F018F3FFFEF9F0793
:1020900044F40196685A7F4F7501603B710589F7DA
:1020A00021C0D701AF50BC4F40E050E08F3FEFEF71
:1020B0009E0709F48CC2FA01E60FF71FE455FF4FA3
:1020C000E4916D01CA18DB08CE0CDF1CF0E01F01A3
:1020D000022E01C0220C0A94EAF7F601808028281B
:1020E000208275C280E00E946D078FE090E00E9420
:1020F000C40AFFEF4F1A5F0A29E14216510409F0A2
:102100008ACF992011F02F9A2D9880E991E00E94B2
:10211000C40A0E94C20AE0916107F091620701902F
:10212000F081E02D81E697E0099582E390E00E943E
:10213000C40A0E94C90A8111F8CF82E4809368071B
:10214000809164008E7F8093640080917A00806427
:1021500080937A0080917A0086FDFCCF0091780010
:10216000109179000E94340820E030E09801112796
:102170000027600F711F821F931F20916400216050
:1021800020936400611571058105910511F00E948D
:10219000161480E00E946D070E945A07E8E02E2E78
:1021A000312C8FB7F89440914E0150914F016091BE
:1021B0005001709151018FBF80916907342F381BF6
:1021C000832F90916A07992329F030936B0710921F
:1021D0006A071AC090916807391740F48F5F891712
:1021E00098F481E083BF889513BE0EC081E0809390
:1021F0006A0740936907809164079091650701968B
:1022000090936507809364078091660780936707C2
:102210000E94C90A809366070E945A07809158035A
:102220009091590381309105E1F08230910509F4D4
:10223000ABC1892B09F0C0C110926D0710926C07D9
:1022400010926F0710926E078DE391E00E94E006F6
:102250008091670783FDB0C18091660783FFACC1A1
:10226000D1C1109255030E94C90A87FF0CC080910A
:102270005303909154038C3191052CF40196909363
:102280005403809353030E94C90A84FF0DC08091B8
:1022900053039091540385324EEF94072CF001972D
:1022A00090935403809353030E94C90A85FF0CC086
:1022B00080915603909157038C3391052CF401962D
:1022C00090935703809356030E94C90A86FF0DC05E
:1022D000809156039091570385345EEF95072CF05B
:1022E00001979093570380935603809194018160E6
:1022F0008093940180918B01806880938B01812C65
:10230000912C1E821D828D818770E1E0F0E002C079
:10231000EE0FFF1F8A95E2F7FC83EB83612C712C93
:10232000A12CB12C2091560330915703C90137FDE0
:10233000079673E0959587957A95E1F76627772755
:10234000681B790B7A8369838091530390915403BE
:10235000AB014A0D5B1D4034510508F076C0AC015D
:1023600097FF02C0495F5F4F63E0559547956A95B7
:10237000E1F7ED81FE81E41BF50BE034F10508F097
:1023800064C0F50146E0EE0FFF1F4A95E1F74D816D
:102390005E81E42BF52B53E0F595E7955A95E1F72F
:1023A000ED5AFE4F408150E06B817C8146235723DC
:1023B000B101452BC1F00E9498142401480E591E0A
:1023C000C901B1010E949814860D971DE9E6F1E05C
:1023D0000491EAE6F1E0E4903AEFC32E20E030E029
:1023E0004BE651E02FC00E9498142401480E591E5C
:1023F000C901B1010E949814860D971DE9E6F1E02C
:102400000491EAE6F1E0E490602F70E02E2D26952D
:1024100026952695422F50E0EE2DE77021E030E022
:1024200011F420E030E0240F351F629FA001639F6C
:10243000500D729F500D112445595E4F2AEFC22E48
:1024400020E030E0B2010E94DD08FFEFAF1ABF0AC2
:1024500028E0620E711C3DE0A316B10409F062CFC2
:102460004D815E814F5F5F4F5E834D8358E0850EE7
:10247000911C6D817E816930710509F044CF00E0C7
:1024800010E0E12CF12C40E0B701C8010E94D10A14
:10249000FFEFEF1AFF0A28E0E216F104A1F70F5F41
:1024A0001F4F0033110569F710926D0710926C07EA
:1024B00010926F0710926E0749815A81BA01052E5A
:1024C000000C880B990B57FF03C00E94330703C011
:1024D0004AE00E94F2068BE491E00E94E0068091BF
:1024E00053039091540397FD07969C0193E0359513
:1024F00027959A95E1F7319521953109B901032E78
:10250000000C880B990B37FF03C00E94330703C0F0
:102510004AE00E94F206E9E6F1E00491EAE6F1E021
:10252000E490402F50E08E2D869586958695282F35
:1025300030E06E2D677081E090E011F480E090E073
:10254000820F931F489F9001499F300D589F300D77
:10255000112489E0829FA001839F500D11244559C9
:102560005E4F8AEFC82E20E030E06CE170E08CE333
:1025700090E00E94DD088091670783FD1DC0809177
:10258000660783FF19C045C010926D0710926C0753
:1025900010926F0710926E07609156037091570367
:1025A000072E000C880B990B97FF03C00E9433077E
:1025B00003C04AE00E94F20680E00E946D0780E0BE
:1025C00090E0892B09F4EDCD0E940000EACD2115A1
:1025D000310581F0FA01E60FF71FE455FF4FE49152
:1025E000F0E0062C02C0F595E7950A94E2F7DC903E
:1025F000ED29EC934F5F5F4F11964835510509F077
:1026000055CD47CD21E030E0309359032093580356
:10261000D3CF82E090E09093590380935803CCCFBE
:10262000E1E8F7E01382128288EE93E0A0E0B0E0E8
:1026300084839583A683B78384E191E0918380832B
:102640008FEF9FEF95878487EDE5F7E01382128285
:102650001186128680E1838710861782158686E2AE
:1026600091E09183808384E391E095838483108A51
:102670001786128A118A81E0838B148A858B168AC9
:1026800008950F931F93CF93DF938C0181E090E027
:102690000E94D20B80FF32C08AE090E00E94D20BF1
:1026A0009FEF980F9E3F50F522E330E0D8015096FF
:1026B0003C932E931F9728E330E052963C932E9341
:1026C0005197CBE0D0E0D801ED91FC910190F081E1
:1026D000E02D682FC8010995CE010E94D20B2196EA
:1026E000C131D10581F780E00E946D0788EE93E04B
:1026F000DF91CF911F910F910C94C40ADF91CF917C
:102700001F910F91089504970C944113CF92DF927B
:10271000EF92FF920F931F93CF93DF931F92CDB74A
:10272000DEB7182F062FE42E862F880F8E5F998331
:102730000E94D40B83E00E94D40BF12EC12E99810C
:10274000D92E8C2D8F19801798F4F601E7FE02C060
:10275000849101C080810E94D40B182F80E00E94D8
:10276000D40B8123FFEFCF1ADF0A8111EACF01C01A
:1027700081E00F90DF91CF911F910F91FF90EF902B
:10278000DF90CF9008958F929F92AF92BF92CF9299
:10279000DF92EF92FF92CF93DF93EC016881798112
:1027A0008A819B81611571058105910521F464E29F
:1027B00079ED8BE597E02DE133EF41E050E00E94A9
:1027C000351449015A019B01AC01A7EAB1E40E940A
:1027D00054146B017C01ACEEB4EFA50194010E948E
:1027E0006214DC01CB018C0D9D1DAE1DBF1DB7FF1A
:1027F00003C00197A109B04888839983AA83BB834A
:10280000BC01CD019F77DF91CF91FF90EF90DF90DA
:10281000CF90BF90AF909F908F9008950E94C31368
:1028200008958CE091E00E94C313089560930C0119
:1028300070930D0180930E0190930F010895F99903
:10284000FECF92BD81BDF89A992780B50895262FB5
:10285000F999FECF1FBA92BD81BD20BD0FB6F89485
:10286000FA9AF99A0FBE01960895052E97FB1EF469
:1028700000940E944C1457FD07D00E94671407FC77
:1028800003D04EF40C944C145095409530952195FE
:102890003F4F4F4F5F4F089590958095709561958C
:1028A0007F4F8F4F9F4F08950E948914A59F900DD1
:1028B000B49F900DA49F800D911D11240895B7FF22
:1028C0000C9454140E945414821B930B0895A1E29B
:1028D0001A2EAA1BBB1BFD010DC0AA1FBB1FEE1F9A
:1028E000FF1FA217B307E407F50720F0A21BB30BE5
:1028F000E40BF50B661F771F881F991F1A9469F761
:1029000060957095809590959B01AC01BD01CF01BC
:102910000895A29FB001B39FC001A39F700D811DB8
:102920001124911DB29F700D811D1124911D0895D8
:1029300097FB072E16F4009407D077FD09D00E946C
:10294000AC1407FC05D03EF4909581959F4F0895F7
:10295000709561957F4F0895AA1BBB1B51E107C07D
:10296000AA1FBB1FA617B70710F0A61BB70B881F1F
:10297000991F5A95A9F780959095BC01CD010895AE
:10298000EE0FFF1F0590F491E02D099481E090E097
:0A299000F8940C94CB14F894FFCFD8
:10299A0000E1000000000000FFFFFFFF010000004F
:1029AA0000000000DA055B06FB05F0054106FF059D
:1029BA001D0600000000E70A02082F082E0841132E
:1029CA00FCFF0000831300C1808100000054697479
:0E29DA006C652053637265656E0A002C000068
:00000001FF
