:100000000C9475050C949D050C949D050C949D0510
:100010000C949D050C949D050C949D050C949D05D8
:100020000C949D050C949D050C94C0070C9432080B
:100030000C949D050C949D050C949D050C949D05B8
:100040000C949D050C949D050C949D050C949D05A8
:100050000C949D050C949D050C949D050C94170B18
:100060000C949D050C949D050C949D050C949D0588
:100070000C949D050C949D050C949D050C949D0578
:100080000C949D050C949D050C949D050C949D0568
:100090000C949D050C949D050C949D050C949D0558
:1000A0000C949D050C949D050C949D05F0F89C8E78
:1000B0008783878E9CF8F00000FEFF030303030391
:1000C000070EFCF80000FEFF0303030303070EFC0A
:1000D000F80000FFFF00000000000000FFFF00002C
:1000E000FEFF8383838383C7EE7C380000F8FC0E19
:1000F00007030303070EFCF800003F7FE0C0808089
:10010000C0E07F3FFFFF01010101010101FFFF008E
:1001100000FFFF0C0C0C0C1C3E77E3C100007FFFBE
:10012000C0C0C0C0C0E0703F1F00001F3F70E0C0F3
:10013000C0C0E0703F1F00007FFFC1C1C1C1C1E36B
:10014000773E1C00001F3F70E0C0C0C0E0703F1F42
:10015000000000000001FFFF01000000D5F08D1439
:10016000A1C881CFD9F1AF2000080800000000002D
:100170000000001C3E3FDFDF2F3E1C000F297909E5
:100180000F00000006192171211E0000387F771B27
:100190003000000018244F4324180048A890780C21
:1001A0000E070000385D5E6C380000003C7A5F5F2F
:1001B0007638000246EBF7F7EB47F50038C42A5EC5
:1001C0007FAF7F0000003F4C3978C408080808085A
:1001D000080808EEE0EE0EEEE0EE0E20747EBFBFE3
:1001E0005E74200047557D050700000C1A3A6A2E00
:1001F0001E0C00003C0E1E1E0E3C000038444F47F3
:100200004438000C0A097F7F090A0C0466F55EB0C9
:100210003020000EDB5F0B6FBFC68C0246FBF7F78A
:10022000FB47F51B877EBC70C00000237F1F063C88
:10023000708000000000070C08080855115544554F
:10024000115544E000F000F800FCFC000007557D6B
:1002500007000040686C6C0C6C6000007C6E0E0E39
:100260006E7C000018644F4764180080F84C26121A
:100270000A06030C0E46E3E3B35E0C0046ED777707
:10028000EB4600004EF3E3E3F34F0100C0E0303CE7
:10029000FEFFFF00E0311327AD437F080808F80890
:1002A00008080866666666CCCCCCCCFFFFE0FEC0D2
:1002B000FC80F8000F497D090F0000001C2E2E362F
:1002C0001C0000807C0E3F3F0E7C8000003C4F47AE
:1002D0003C000000606010080604004026AB7F3F31
:1002E000EB26400047EA7676EA4700064FEB7F7F31
:1002F000EB4F06FF3D3EFEF6EC78E059A7AB2F67CB
:1003000045820108080C0700000000CCCCCCCC666C
:10031000666666FC9A9AFAFAFAFAAC040C487C7C97
:100320004C0404003E5F55555D5F0000003E1F7E9B
:100330003F7E0000387D7B7A7C380000206010080A
:1003400004020030780E1C0E38700000062B377740
:100350007B5600E0F0C880C66F7FF9010303F934D3
:100360001A0703000000FF0000000000000000006A
:1003700000000066CC663366CC6633007E57577744
:100380005F7E00006E4D5D5D4D6E00003E5F57511B
:100390005D5F000040607E3E7E060030287C3C1C95
:1003A0000F020000067E060E1E0E000B868AFFFC62
:1003B000F8E0000046EB5F5FEB4600F8EC1CD8F07D
:1003C000E074B81F3B3D6081010100000000F0189F
:1003D000080808000000000000000042243C72D31E
:1003E0003D27C3204C1A969A4E4C00006F41434360
:1003F000416F0000080C6E3B180800007070787E9A
:100400001E7E00001C1A7E761E1C000000107F7EDF
:10041000100000281C2E3E3E3C2020004EEBF7F73B
:10042000EB4E00008CC666F77FB9FC050F150B027A
:10043000184F610808080F080808080000000000AD
:10044000000000003C7E7E0E1E3C00000D3E7E7CC7
:100450003C5A2000307A7D7D7A30000060607E0654
:10046000060400000E737E7E730E000C3E3E3C3A86
:100470003C3A0C000A0E7F0E0A0000113B1F060ECC
:100480001F5B310046EBF7F7EB4600F535EFEDDB90
:10049000879D3A3E3F070367BF1E0A080818F00011
:1004A00000000000000000000000000870001C06B2
:1004B000C020000007557D05070000003C7E424239
:1004C0003C00000C1E3E7C2E160C00001C667C7C42
:1004D000661C000030787E310206041C3E1CFE1CA7
:1004E0003E1C000070BCFFFCBE70000046EB77773E
:1004F000EB46000000050F0F15274F000264B4AC57
:10050000A8FCFE080808FF00000000000000000032
:10051000000000070E0C384C0E0600000007657D39
:1005200007000000505000145440000E3E7E7E42F2
:10053000320E00001C244F47241C00001824564E85
:100540003F0300402C183C2E070300346EAB1F9F66
:10055000AB6E34004EEB7777EB4E009FFDF9E286F1
:100560007C3800CFD7EB7978300000000000FF081E
:100570000808080000000000000000080B0002024C
:10058000020100090400000102020000052400101D
:1005900001052401010104240206052406000107C7
:1005A00005810310004009040100020A0000000751
:1005B0000502024000000705830240000004030911
:1005C0000412010002EF02014041233680000101C4
:1005D00002030141726475696E6F204C4C43004107
:1005E000726475626F790000000000003E5B4F5B33
:1005F0003E3E6B4F6B3E1C3E7C3E1C183C7E3C18C6
:100600001C577D571C1C5E7F5E1C00183C1800FFA9
:10061000E7C3E7FF0018241800FFE7DBE7FF3048D7
:100620003A060E2629792926407F050507407F05D1
:10063000253F5A3CE73C5A7F3E1C1C08081C1C3EC8
:100640007F14227F22145F5F005F5F06097F017FB6
:10065000006689956A606060606094A2FFA2940859
:10066000047E040810207E201008082A1C08081C9C
:100670002A08081E101010100C1E0C1E0C30383EDC
:100680003830060E3E0E06000000000000005F003D
:10069000000007000700147F147F14242A7F2A1209
:1006A00023130864623649562050000807030000EF
:1006B0001C2241000041221C002A1C7F1C2A080821
:1006C0003E08080080703000080808080800006034
:1006D000600020100804023E5149453E00427F4020
:1006E0000072494949462141494D331814127F107F
:1006F00027454545393C4A494931412111090736C9
:1007000049494936464949291E0000140000004065
:10071000340000000814224114141414140041225F
:10072000140802015909063E415D594E7C1211120E
:100730007C7F494949363E414141227F4141413E0A
:100740007F494949417F090909013E414151737F70
:100750000808087F00417F41002040413F017F0899
:100760001422417F404040407F021C027F7F0408EA
:10077000107F3E4141413E7F090909063E4151211A
:100780005E7F09192946264949493203017F010341
:100790003F4040403F1F2040201F3F4038403F63C4
:1007A0001408146303047804036159494D43007F1E
:1007B0004141410204081020004141417F040201EF
:1007C0000204404040404000030708002054547891
:1007D000407F284444383844444428384444287FDF
:1007E000385454541800087E090218A4A49C787F39
:1007F0000804047800447D40002040403D007F1004
:1008000028440000417F40007C047804787C080480
:1008100004783844444438FC182424181824241834
:10082000FC7C08040408485454542404043F442421
:100830003C4040207C1C2040201C3C4030403C443C
:10084000281028444C9090907C4464544C440008F8
:100850003641000000770000004136080002010226
:1008600004023C2623263C1EA1A161123A404020EE
:100870007A38545455592155557941215454784169
:10088000215554784020545579400C1E527212392B
:1008900055555559395454545939555454580000E4
:1008A000457C410002457D420001457C40F0292401
:1008B00029F0F0282528F07C545545002054547C1C
:1008C000547C0A097F493249494932324848483202
:1008D000324A4848303A4141217A3A424020780031
:1008E0009DA0A07D39444444393D4040403D3C24D6
:1008F000FF2424487E4943662B2FFC2F2BFF092918
:10090000F620C0887E090320545479410000447DBC
:10091000413048484A32384040227A007A0A0A7206
:100920007D0D19317D2629292F28262929292630B0
:10093000484D4020380808080808080808382F10D3
:10094000C8ACBA2F102834FA00007B000008142A23
:10095000142222142A14089500220095AA0055009A
:10096000AAAA55AA55AA000000FF00101010FF0007
:10097000141414FF001010FF00FF1010F010F014FA
:100980001414FC001414F700FF0000FF00FF1414FF
:10099000F404FC141417101F10101F101F1414144B
:1009A0001F00101010F0000000001F101010101F8A
:1009B00010101010F010000000FF10101010101098
:1009C000101010FF10000000FF140000FF00FF00D7
:1009D000001F10170000FC04F4141417101714144F
:1009E000F404F40000FF00F714141414141414F7A2
:1009F00000F7141414171410101F101F141414F4FB
:100A0000141010F010F000001F101F0000001F1441
:100A1000000000FC140000F010F01010FF10FF1494
:100A20001414FF141010101F00000000F010FFFF3E
:100A3000FFFFFFF0F0F0F0F0FFFFFF00000000000C
:100A4000FFFF0F0F0F0F0F38444438447C2A2A3E13
:100A5000147E02020606027E027E0263554941634D
:100A60003844443C04407E201E2006027E02029947
:100A7000A5E7A5991C2A492A1C4C7201724C304AE0
:100A80004D4D303048784830BC625A463D3E494969
:100A900049007E0101017E2A2A2A2A2A44445F4411
:100AA0004440514A444040444A51400000FF010341
:100AB000E080FF000008086B6B083612362436060B
:100AC0000F090F0600001818000000101000304039
:100AD000FF0101001F01011E00191D1712003C3CFF
:100AE0003C3C000000000000221411241FBECFEF88
:100AF000DAE0DEBFCDBF11E0A0E0B1E0ECE1FBE267
:100B000002C005900D92AC34B107D9F727E0ACE4F0
:100B1000B1E001C01D92AF3DB207E1F715E0C5E7B6
:100B2000D5E004C02197FE010E948115C437D1078A
:100B3000C9F70E94C50E0C948C150C940000FC01A2
:100B400080916503811103C08FEF9FEF08959FB7D8
:100B5000F89482E08093E9002091F20030E01216D0
:100B6000130614F421E030E02115310559F02898DE
:100B700084E6809364038091F10080838091F20089
:100B8000882319F09FBFC90108958BE68093E80080
:100B9000F9CF2FB7F89483E08093E9009091E800B3
:100BA000892F807295FF04C09091F20080E4891B28
:100BB0002FBF08958091820781110DC082E080933C
:100BC0007E0784E080937F07109281071092800750
:100BD00081E0809382078EE797E00895CF93DF93BB
:100BE0001F92CDB7DEB76983DC01ED91FC910280E5
:100BF000F381E02D41E050E0BE016F5F7F4F09952A
:100C00000F90DF91CF91089583E08093E900809168
:100C1000F200882319F08AE38093E80008950E9487
:100C2000C90590E00895CF93DF931F92CDB7DEB74B
:100C3000FC018485958597FD05C02FEF3FEF358733
:100C400024870BC0CE0101960E949F05019719F4DD
:100C5000898190E002C08FEF9FEF0F90DF91CF91DD
:100C600008950F931F93CF93DF931F92CDB7DEB7F5
:100C70008C01FC018485958597FF0EC0CE010196FD
:100C80000E949F05019719F4298130E002C02FEFDF
:100C90003FEFF80135872487F801848595850F900B
:100CA000DF91CF911F910F910895FC018485958567
:100CB00097FD0BC09FB7F89482E08093E900809184
:100CC000F2009FBF90E0019608959FB7F89482E0EC
:100CD0008093E9008091F2009FBF90E008958F9289
:100CE0009F92AF92BF92CF92DF92EF92FF920F93BB
:100CF0001F93CF93DF935C016B017A0180910B010D
:100D0000882309F45BC080916503882309F456C0E9
:100D10008091630380FF05C08091E0008260809332
:100D2000E000E70110E00AEF83E0882E9AE3992EB5
:100D30002097D9F10E94C90581110AC0015009F418
:100D40003DC061E070E080E090E00E94DD0AF0CFFD
:100D5000282F30E0C217D3070CF48C2F4FB7F8942C
:100D60008092E9009091E80095FF1DC0282F30E0A7
:100D7000C21BD30BF601982F915020F081918093E4
:100D8000F100FACFC20ED31E112319F09092E800A1
:100D900009C08091E80085FD06C09092E80011E04E
:100DA000209709F010E04FBFC3CF1111C3CF5D985A
:100DB00084E680937D071E141F0444F081E090E0D8
:100DC000F5019383828380E090E001C0C701DF9149
:100DD000CF911F910F91FF90EF90DF90CF90BF9038
:100DE000AF909F908F900895DF92EF92FF920F93B4
:100DF0001F93CF93DF93D82E8A017B01E40EF51E5B
:100E0000EB01CE15DF0571F0D7FE03C0FE01849122
:100E100001C088810E948A0E21968111F2CF8FEF46
:100E20009FEF01C0C801DF91CF911F910F91FF90FB
:100E3000EF90DF9008950F931F93CF93DF931F924E
:100E4000CDB7DEB782E0898342E450E06BE775E01E
:100E500080E80E94F4060E94DA05DC0112960D91EA
:100E60001C9113970115110569F0D801ED91FC91C2
:100E70000280F381E02DBE016F5F7F4FC8010995AD
:100E800097FF07C089810F90DF91CF911F910F913C
:100E90000895F80100851185E5CF8F929F92AF925A
:100EA000BF920F931F93CF93DF93CDB7DEB7A19778
:100EB0000FB6F894DEBF0FBECDBF19A2423008F4C2
:100EC0004AE08E010F5D1F4F842E912CA12CB12C76
:100ED000A50194010E943C15E62FB901CA010150F9
:100EE0001109EA3014F4E05D01C0E95CD801EC932B
:100EF000232B242B252B61F70115110571F0F80127
:100F000001900020E9F73197AF01401B510BB80168
:100F100086E697E00E94620A02C080E090E0A19617
:100F20000FB6F894DEBF0FBECDBFDF91CF911F91FA
:100F30000F91BF90AF909F908F90089580E0E6E66C
:100F4000F3E081118FEF002481938193819381934A
:100F50000394D1F7E6E6F7E0128A118A108A178621
:100F60000895E6E6F3E0A0E0B8E000800EBC811151
:100F7000012C1197A0FDFDCF0192B9F70DB4089592
:100F80001F920F920FB60F9211248F939F9380910F
:100F9000E1009091E100937F9093E10083FF0FC007
:100FA0001092E90091E09093EB001092EC0092E334
:100FB0009093ED001092650398E09093F00082FF0B
:100FC00020C093E09093E9009091F200992319F0EA
:100FD0009AE39093E80090917D07992339F09091DE
:100FE0007D07915090937D07992389F19091640337
:100FF000992339F09091640391509093640399235D
:1010000041F184FF10C08091E2008E7E8160809368
:10101000E2008091E1008F7E8093E1008091630384
:101020008E7E806111C080FF16C08091E2008E7EAE
:1010300080618093E2008091E1008E7E8093E100E8
:10104000809163038E7E81608093630304C05D9A08
:10105000CDCF289AD6CF9F918F910F900FBE0F9032
:101060001F9018951F920F920FB60F921124CF92D6
:10107000DF92EF92FF920F931F932F933F934F9323
:101080005F936F937F938F939F93AF93BF93EF93F0
:10109000FF93CF93DF93CDB7DEB76C97DEBFCDBFA5
:1010A0001092E9008091E80083FFEDC168E0CE0175
:1010B00045960E94B80E82EF8093E8008D8987FFE5
:1010C00005C09091E80090FFFCCF03C09EEF909385
:1010D000E800982F907609F0C6C09E892F89188D58
:1010E00091110CC0803829F4809162038093F10043
:1010F00002C01092F1001092F10048C1422F50E05E
:10110000512B913051F4811141C14130510509F009
:101110003DC1809162038D7F0BC0933061F48111DA
:1011200035C14130510509F031C1809162038260BF
:10113000809362032BC1953041F48091E80080FFD9
:10114000FCCF20682093E30021C1963009F05FC0F6
:10115000EB8CFC8C1092E9001092600310925F03FC
:10116000123091F510925E0310925D030E941B07EE
:1011700099E0BE016F5F7F4FDB01E92F1D92EA9579
:10118000E9F799831A8391E09E8390EA98879AEF12
:10119000998720915F0330916003275F3F4F3C8325
:1011A0002B838D831092E9001092600310925F03ED
:1011B000F0925E03E0925D0349E050E080E00E941F
:1011C000F4060E941B07E2C0F0925E03E0925D030A
:1011D0000E94DA05DC011296ED90FC901397E11461
:1011E000F10409F4C0C0D701ED91FC910480F581B0
:1011F000E02DBE016B5E7F4FC7010995009719F086
:101200000CF0C4C0C7C0F701E084F184E8CF973088
:1012100009F4C0C0983021F481E08093F100B6C099
:10122000993009F0B3C0837009F0B4C0E1E1F1E096
:1012300081E021E036E39081992361F08093E90019
:101240002093EB0091919093EC003093ED008F5F31
:10125000873089F78EE78093EA001092EA008F8941
:101260008093650393C08B8D9C8D1092E900109242
:10127000600310925F0390935E0380935D03898DFA
:10128000811156C08E899D89913A59F4813209F0B5
:1012900081C047E050E064E071E080E00E94F40625
:1012A00075C0913209F076C0833289F4888D90E060
:1012B000982F88272F89822BA0E0B0E0809300012F
:1012C00090930101A0930201B09303015FC08032AB
:1012D00069F48091E80082FFFCCF67E084E091E050
:1012E0000E94B80E8BEF8093E80006C0823209F0AE
:1012F0004DC08F8980930B0180916103882319F081
:10130000EEEFFAE002C0E0E0F8E080910401909195
:101310000501A0910601B0910701803B9440A10511
:10132000B10509F07BC080910B0180FF93C076C0AE
:101330000E94DA05DC0112960D911C91139701159C
:10134000110541F1D801ED91FC910190F081E02D62
:10135000BE016B5E7F4FC8010995811117C0F8016E
:1013600000851185ECCF113009F44EC0133091F493
:101370008F89882309F445C0823081F440E867E012
:101380008FED95E00E94E513882321F08EEF809386
:10139000E80079C081E28093EB0075C0813029F4C8
:1013A00040E86BE083ED95E0EDCF833099F70E9444
:1013B000DA05DC011296ED90FC9013978E010F5F19
:1013C0001F4F6801E114F10479F0D701ED91FC9110
:1013D0000680F781E02DB801C7010995080F111D9E
:1013E000F701E084F184EECFD8011C92F601019060
:1013F0000020E9F73197BF016C197D0940E0C60173
:10140000C1CF6DEB75E002C061EC75E0611571054F
:1014100009F2FB01449150E080E840CF0FB6F89408
:10142000A8958091600088618093600010926000B0
:101430000FBEA895EE3F2AE0F20739F08091FE0A30
:101440009091FF0A91838083A1CF1092FF0A10929E
:10145000FE0A9CCFEE3F8AE0F80731F0808191814F
:101460009093FF0A8093FE0A87E797E79183808332
:101470009BE088E10FB6F894A895809360000FBEBA
:101480009093600083CF6C960FB6F894DEBF0FBECA
:10149000CDBFDF91CF91FF91EF91BF91AF919F9120
:1014A0008F917F916F915F914F913F912F911F91FC
:1014B0000F91FF90EF90DF90CF900F900FBE0F90A5
:1014C0001F901895CF92DF92EF92FF920F931F9388
:1014D000CF93DF936C017A018B01C0E0D0E0CE1591
:1014E000DF0589F0D8016D918D01D601ED91FC9158
:1014F0000190F081E02DC6010995892B11F47E0140
:1015000002C02196ECCFC701DF91CF911F910F91BF
:10151000FF90EF90DF90CF9008950895089580E0B8
:1015200090E008950E948715CF93DF9300D000D0FC
:10153000CDB7DEB7611571058105910579F09B0185
:10154000AC0169833A834B835C830E94E614298152
:101550003A814B815C810E940A1503C060E070E013
:10156000CB010F900F900F900F90DF91CF910895C6
:101570003FB7F8948091DB079091DC07A091DD07DD
:10158000B091DE0726B5A89B05C02F3F19F0019644
:10159000A11DB11D3FBFBA2FA92F982F8827820FF9
:1015A000911DA11DB11DBC01CD0142E0660F771F49
:1015B000881F991F4A95D1F708958F929F92AF92F5
:1015C000BF92CF92DF92EF92FF926B017C010E945B
:1015D000B80A4B015C01C114D104E104F104F1F03B
:1015E0000E94B80ADC01CB0188199909AA09BB0934
:1015F000883E9340A105B10570F321E0C21AD108DD
:10160000E108F10888EE880E83E0981EA11CB11C49
:10161000C114D104E104F10419F7DDCFFF90EF907C
:10162000DF90CF90BF90AF909F908F9008951F92C2
:101630000F920FB60F9211242F933F938F939F9386
:10164000AF93BF9380914C0190914D01A0914E01B9
:10165000B0914F013091DA0723E0230F2D3720F4AA
:101660000196A11DB11D05C026E8230F0296A11DFC
:10167000B11D2093DA0780934C0190934D01A09304
:101680004E01B0934F018091DB079091DC07A09150
:10169000DD07B091DE070196A11DB11D8093DB0728
:1016A0009093DC07A093DD07B093DE07BF91AF9165
:1016B0009F918F913F912F910F900FBE0F901F9090
:1016C00018954F925F927F928F929F92AF92BF92A6
:1016D000CF92DF92EF92FF920F931F93CF93DF93FE
:1016E00000D000D0CDB7DEB729011C2DA02EB12C23
:1016F0009C012A0D3B1D121613060CF0B3C1803855
:1017000091050CF0AFC1FB01EE0DF11D1E161F0679
:101710000CF0A8C1603471050CF0A4C1411551054D
:1017200009F4A0C1E62FE770FE2EFB0177FD379686
:10173000A3E0F595E795AA95E1F7AE2F77FF04C0F2
:10174000FF2011F0AFEFAE0F97FF05C0EE27FF2788
:10175000E81BF90B02C0E0E0F0E02038310524F08E
:1017600020E8722E781A01C0702E7E1A6A2F0A2E77
:10177000000C770BAF3F1CF4D62ED09401C0D12CB7
:1017800021E03E2D377009F420E0E694E694E694DB
:10179000E20E6E0D711D693071051CF028E0E22E1D
:1017A000EA1AED183D2D3A0FDC0120E83203A00DB6
:1017B000B11D1124AE0FBF1FD09EE00DF11D1124ED
:1017C0004E0F5F1F81E090E04C010F2C02C0880C8F
:1017D000991C0A94E2F7133009F403C1A0F4113004
:1017E00009F4B5C0123009F03DC18FEF889DB001FA
:1017F000899D700D1124609570957C836B835C804E
:101800002E2D230F2BC01A3F31F01B3F09F02AC1A8
:101810002E2D230F88C02E2D230F51C0FA01E00F6B
:10182000F11FE491E89D6001E99DD00C1124DA825A
:10183000C98237FD07C0FC01E080EE2DE623CE2AE9
:10184000FC01C082F11013C00F5F1F4F01960715F6
:1018500028F33F5F4A0D5B1DA058BF4F321709F4B4
:1018600001C1CD018A599C4F00E010E0F0CF373024
:101870005CF7FC01E058FF4FD080D520CA80DC28FF
:10188000D082E2CFFA01E60FF71FE491E89D8001D4
:10189000E99D100D11241A83098337FD04C0FC0152
:1018A0001081012B0083F11013C06F5F7F4F0196F1
:1018B000671540F33F5F4A0D5B1DA058BF4F3217BD
:1018C00009F4D0C0CD018A599C4F60E070E0F0CFA0
:1018D00037305CF78C0100581F4FF801E080EA8137
:1018E000EE2AF801E082E1CFFA01E00FF11FE49166
:1018F000E89DC001E99D900D11249A83898337FDED
:1019000005C08095FB01908189238083F11014C06C
:101910000F5F1F4F6F5F7F4F071530F33F5F4A0D1B
:101920005B1DA058BF4F321709F49CC0BD016A5916
:101930007C4F00E010E0F0CF373054F7FB01E05867
:10194000FF4F8A818095908189238083E1CFC201F6
:101950008E0F9F1F2E2D230F321709F483C0BD0158
:101960006A597C4F6B0100E010E0071590F5FC010F
:10197000E00FF11FE491E89DB001E99D700D112485
:10198000609570957C836B83FA01E00FF11FE49101
:10199000E89D2001E99D500C11245A82498237FDAF
:1019A00005C0F60170816723462A4082FF2059F066
:1019B00037304CF4F601E058FF4F70816C8167239B
:1019C0007A81672B60830F5F1F4FFFEFCF1ADF0A0B
:1019D000CCCF3F5F4A0D5B1D8A0D9B1DA058BF4FAA
:1019E000BBCFC72CD12CE40FF51FAA59BC4F60E820
:1019F00070E06C197D09AC18BD088501000F111F3E
:101A0000572D2E2DCF93DF93ED01EF96EF96229673
:101A1000A590C590FF2059F0A89C5001C89C60017A
:101A200037302CF4E880D094ED20EB28E992332372
:101A30003AF0EC90C094EC20EA28ED920C94210D41
:101A400011965A9529F72A9551F0572D339511245F
:101A5000E00FF11DA60FB11DC60FD11DD9CFDF912B
:101A6000CF9111240F900F900F900F90DF91CF9195
:101A70001F910F91FF90EF90DF90CF90BF90AF90AC
:101A80009F908F907F905F904F9008952D9A08952A
:101A9000BC0180E090E00C94DD0A8FB18095807FDE
:101AA000669B88601C9B8460089590E1282F81E0EC
:101AB00061FD84E060FD880F62FD8295687F969FDE
:101AC000D0011124A20FAA59BC4F9C91982B40FF22
:101AD00098279C9308952F923F924F925F926F9216
:101AE0007F928F929F92AF92BF92CF92DF92EF92AE
:101AF000FF920F931F93CF93DF93CDB7DEB7279756
:101B00000FB6F894DEBF0FBECDBFFC016A3069F49A
:101B100025898189928938E0239F800D911D1124A8
:101B2000928B818B108A1786A6C06D3009F4A3C0F2
:101B30009F838E8335882489298333893A836188FA
:101B40007288E784F08880E8E816F104C4F0AE817A
:101B5000BF8155962C915597422F50E01F968D913D
:101B60009C915097B6E02B9F800D911D1124EE8122
:101B7000FF81908B87872689211167C07CC0F0E4A4
:101B80006F16710424F7C70125E0329E800D911D68
:101B9000112418161906DCF6432C512CC30138E029
:101BA000339E800D911D11241816190684F685E0C8
:101BB000689F8001112409511A4F20E0F8012490F8
:101BC000253009F4212C430158E020FC02C0398162
:101BD00001C03A8131110BC0F9818A81F81307C025
:101BE00026945150840C951C5111EFCF25C06701EC
:101BF0008C2D8E198315A0F754018A2D8819831511
:101C0000B8F490E8C916D10478F4A0E4AA16B10497
:101C100058F4432FB501C6012C833B835D830E949A
:101C2000550D5D813B812C81BFEFAB1ABB0AE5CF1F
:101C3000EFEFCE1ADE0ADCCF2F5FE40CF51C0F5F4E
:101C40001F4F263009F0BACF82CF6AEF64039001AC
:101C5000659F300D112420583F4F281739075CF439
:101C6000AE81BF81ED91FC9111970190F081E02D43
:101C70006AE0CD01099581E090E027960FB6F894CF
:101C8000DEBF0FBECDBFDF91CF911F910F91FF90AF
:101C9000EF90DF90CF90BF90AF909F908F907F900C
:101CA0006F905F904F903F902F9008950C94F41494
:101CB00020E4829FC0011124FC01E62B83E0F5950E
:101CC000E7958A95E1F7E05BFE4F208130E0677091
:101CD00081E090E002C0880F991F6A95E2F78223A5
:101CE0009323089520E4829FC0011124FC01E62B78
:101CF00083E0F595E7958A95E1F7E05BFE4F677025
:101D000081E090E001C0880F6A95EAF79081892B05
:101D10008083089540915F035091600320915D039B
:101D200030915E0342175307B4F49091E800957028
:101D3000E1F39091E80092FD19C08093F100809149
:101D40005F039091600301968F739927892B19F493
:101D50008EEF8093E80080915F039091600301967D
:101D60009093600380935F0381E0089580E008957D
:101D7000615030F02091F100FC0120830196F8CFF2
:101D8000289884E6809364030895CF93DF9300D06E
:101D900000D0CDB7DEB7789484B5826084BD84B5B9
:101DA000816084BD85B5826085BD85B5816085BD56
:101DB00080916E00816080936E001092810080910E
:101DC0008100826080938100809181008160809396
:101DD00081008091800081608093800080919100DB
:101DE0008260809391008091910081608093910046
:101DF000809190008160809390008091C100846008
:101E00008093C1008091C10082608093C100809165
:101E1000C10081608093C1008091C3008160809384
:101E2000C3008091C00082608093C0008091C20096
:101E300081608093C20080917A00846080937A00F0
:101E400080917A00826080937A0080917A0081602C
:101E500080937A0080917A00806880937A00109253
:101E6000650310926203109263038091D700816032
:101E70008093D70080EA8093D80089B5806189BDBE
:101E800089B5826089BD09B400FEFDCF61E070E0D4
:101E900080E090E00E94DD0A8091D8008F7C806114
:101EA0008093D8008091E000807F8093E000809153
:101EB000E1008E7E8093E1008DE08093E200559AF0
:101EC000209AEEEFFFE7859194918B3F9C4D19F49A
:101ED00081E08093610381EC80937C0085B1806F09
:101EE00085B984B1877E84B984B1876E84B95E9ADE
:101EF0005F988AB1806D8AB9769A6E9881B3806F47
:101F000081BB899880B38D7080BB80E58CBD81E0FA
:101F10008DBD85E090E00E94480D5F9A85E090E0DD
:101F20000E94480D5E985C98ECE5F1E08DE08E0F24
:101F300094919EBD00000DB407FEFDCF31968E1327
:101F4000F7CF5C9A81E8809364008091650081609E
:101F50008093650080E00E94B1070E944D0D87FFCD
:101F600024C05C9885EA8EBD00000DB407FEFDCF4D
:101F70005C9A2E982F982D988091640080628093AF
:101F8000640081E083BF889513BEFCCF2D980E942A
:101F90004D0D8478843871F00E944D0D8471843128
:101FA00031F188EC90E00E94480D0E944D0D82FDB9
:101FB000EDCF3AC00E94460D88EC90E00E94480D9B
:101FC0002F9882E090E00E94F4148F3F29F06FEF89
:101FD00082E090E00E94FC1484EF91E00E94480DA2
:101FE0002F9A0E944D0D84788438D9F3D5CF0E9462
:101FF000460D88EC90E00E94480D2E9882E090E01B
:102000000E94F414882329F060E082E090E00E94AE
:10201000FC1484EF91E00E94480D2E9A0E944D0D11
:1020200084718431D9F3BDCF0E94460D82E090E0E7
:102030000E94F414882331F03E9A3F9A81E0809305
:10204000500304C0109250033E983F9881E090E006
:102050000E94560E82FB992490F881FF92C0911045
:102060002E9860EF462E55245A9408E010E00E9406
:102070004D0D86FF04C02E9A2F9A2D9A82C099206A
:1020800031F044E04416510411F42E9A2F9881E067
:102090000E94B107920157FE04C02227332724195A
:1020A000350927703327C20157FC079653E09595F1
:1020B00087955A95E1F757FE05C00197F801E21B95
:1020C000F30B9F017C01F694FE2CEE24F794E79429
:1020D00060E070E03801621A730AA70140585F4F50
:1020E0005A018F3F5FEF950744F40196685A7F4F7E
:1020F0007501603B710589F721C0D701A650BC4F1F
:1021000040E050E08F3FEFEF9E0709F434C3FA013F
:10211000E60FF71FE455FF4FE4916D01CA18DB0885
:10212000CE0CDF1CF0E01F01022E01C0220C0A942D
:10213000EAF7F6018080282820821DC380E00E94F3
:10214000B1078FE090E00E94480DFFEF4F1A5F0A41
:1021500029E14216510409F08ACF992011F02F9AF3
:102160002D9880E991E00E94480D0E94460DE09173
:102170006A07F0916B070190F081E02D8AE697E005
:10218000099582E390E00E94480D0E944D0D811157
:10219000F8CF82E480937107809164008E7F8093F2
:1021A000640080917A00806480937A0080917A0044
:1021B00086FDFCCF00917800109179000E94B80A4A
:1021C00020E030E0980111270027600F711F821F67
:1021D000931F2091640021602093640061157105B4
:1021E0008105910511F00E94EB1480E00E94B10777
:1021F0000E949E07E9E68E2EE1E09E2EFAE66F2E03
:10220000F1E07F2E44244394512C74E0272E312C8E
:102210008FB7F89440914C0150914D0160914E015F
:1022200070914F018FBF80917207942F981B892F57
:1022300090917307992329F0809374071092730784
:1022400092C290917107891748F48F5F891708F03F
:102250008AC281E083BF889513BE85C281E08093E6
:1022600073074093720780916D0790916E070196F6
:1022700090936E0780936D0780916F07809370072E
:102280000E944D0D80936F070E949E0780915B0313
:1022900090915C038130910509F425C11CF4892BD0
:1022A00059F05EC28230910509F44CC2049709F0DE
:1022B00057C26AE0A62E19C01092760710927507D1
:1022C00010927807109277074DE050E06DE371E0CF
:1022D00086E697E00E94620A8091700783FD40C203
:1022E00080916F0783FF3CC261C280915803809345
:1022F0005703809156038093550363E370E080E0B9
:1023000090E00E94940ADC01CB010296A11DB11D50
:102310008093540363E370E080E090E00E94940AAD
:102320006B017C01E2E0CE0ED11CE11CF11CC092DD
:1023300053031091540366E070E080E090E00E9447
:10234000940ADC01CB010696A11DB11D612F680F17
:1023500060935203B090530366E070E080E090E039
:102360000E94940ADC01CB010696A11DB11DB80E96
:10237000B0925103909153039B15B0F40091540314
:1023800080915203081750F4692F802F9C830E947C
:10239000720E0F5F009354039C81F0CF109354038F
:1023A0009F5F90935303E6CFC09253032091540351
:1023B0008091520390E0821B910997FD01969595BB
:1023C0008795022F080F009358038B2D90E08C19EE
:1023D000910997FD019695958795C80EC092560371
:1023E00080915703811106C0AA94A1107ECF00E00E
:1023F00010E059C0801748F510915703011748F0B5
:1024000060915503812F0E94720E1F5F1093570336
:10241000F3CF809155038C1560F400915503C016DD
:1024200018F3602F812F0E94720E0F5F00935503E7
:10243000F4CF009155030C15B8F2602F812F0E9444
:10244000720E015000935503F4CF109157031017EB
:1024500058F060915503812F0E94720E80915703AE
:10246000815080935703F1CF809155038C1568F408
:1024700000915503C01608F4B7CF602F812F0E943A
:10248000720E0F5F00935503F3CF609155036C15E7
:1024900008F4AACF812F0E94720E809155038150BB
:1024A00080935503F2CF612F802F0E94580E892B05
:1024B00089F462E370E080E090E00E94940A05E015
:1024C000060F62E370E080E090E00E94940A15E05D
:1024D000160FE9CF00935A031093590350925C03EF
:1024E00040925B033DC180916D0790916E0763E060
:1024F00070E00E946D15892B09F04CC00E944D0DB3
:1025000087FF0FC080915903882359F01FEF180FE0
:10251000612F80915A030E94580E892B11F010935D
:1025200059030E944D0D84FF0FC0809159038034E0
:1025300058F411E0180F612F80915A030E94580E31
:10254000892B11F0109359030E944D0D85FF0FC088
:1025500080915A03882359F01FEF180F6091590397
:10256000812F0E94580E892B11F010935A030E945C
:102570004D0D86FF0FC080915A03803458F411E04E
:10258000180F60915903812F0E94580E892B11F06A
:1025900010935A0380917001806180937001809143
:1025A000910181608093910180918801806880937E
:1025B0008801D0905A033AEFF32EFD0C8091590315
:1025C00083508983A12CB12C19811B821A82FFE3CD
:1025D000FF1508F43AC0113408F037C0612F8F2D71
:1025E0000E94580EF401892B51F00491F301E490FC
:1025F0002AEFC22E20E030E04BE651E021C00491EA
:10260000F301E490202F30E08E2D869586958695F7
:10261000482F50E06E2D677081E090E011F480E06B
:1026200090E0840F951F289FA001299F500D389F8F
:10263000500D112445595E4F9AEFC92E20E030E02D
:102640006A817B81C5010E94610B1F5F4A815B81AA
:10265000485F5F4F5B834A834833510509F0B7CF2A
:10266000F39458E0A50EB11C88E6A816B10409F051
:10267000ABCF00E010E0E12CF12C40E0B701C80145
:102680000E94550D9FEFE91AF90AE8E0EE16F104F1
:10269000A1F70F5F1F4F0033110569F710927607FE
:1026A0001092750710927807109277076D2D70E0E1
:1026B00080E090E04AE00E944D076091590370E08D
:1026C00080E090E04AE00E944D07F4010491F3019C
:1026D000E490402F50E08E2D869586958695282F84
:1026E00030E06E2D677081E090E011F480E090E0C2
:1026F000820F931F489F9001499F300D589F300DC6
:10270000112489E0829FA001839F500D1124455917
:102710005E4F8AEFC82E20E030E068E170E080E391
:1027200090E00E94610B8091700783FD04C090913E
:102730006F0793FD40C082FD13C080916F0782FF39
:102740000FC03EC01092760710927507109278075E
:10275000109277074AE060E070E0CB010E944D07DD
:1027600080E00E94B10780E090E0892B09F450CD11
:102770000E9400004ACD2115310581F0FA01E60FD3
:10278000F71FE455FF4FE491F0E0062C02C0F595E9
:10279000E7950A94E2F7DC90ED29EC934F5F5F4FE9
:1027A00011964835510509F0ADCC9FCC30925C03B1
:1027B00020925B03D5CF10925C0310925B03BBCFDA
:1027C00010925C0310925B03CBCFCF92DF92EF921B
:1027D000FF920F931F93CF93DF931F92CDB7DEB776
:1027E000182F062FE42E862F880F8E5F99830E9464
:1027F0008A0E83E00E948A0EF12EC12E9981D92E75
:102800008C2D8F19801798F4F601E7FE02C0849191
:1028100001C080810E948A0E182F80E00E948A0EDB
:102820008123FFEFCF1ADF0A8111EACF01C081E0D7
:102830000F90DF91CF911F910F91FF90EF90DF905C
:10284000CF900895EAE8F7E01382128288EE93E0D1
:10285000A0E0B0E084839583A683B7838BE191E009
:10286000918380838FEF9FEF95878487E6E6F7E07B
:10287000138212821186128680E183871086178266
:1028800015868DE291E0918380838BE391E09583BF
:102890008483108A1786128A118A81E0838B148AB6
:1028A000858B168A08950F931F93CF93DF938C0126
:1028B00081E090E00E94560E80FF32C08AE090E0F6
:1028C0000E94560E9FEF980F9E3F50F522E330E096
:1028D000D80150963C932E931F9728E330E05296F0
:1028E0003C932E935197CBE0D0E0D801ED91FC9131
:1028F0000190F081E02D682FC8010995CE010E945A
:10290000560E2196C131D10581F780E00E94B107B2
:1029100088EE93E0DF91CF911F910F910C94480DB9
:10292000DF91CF911F910F91089504970C94531448
:102930008F929F92AF92BF92CF92DF92EF92FF92CF
:10294000CF93DF93EC01688179818A819B81611546
:1029500071058105910521F464E279ED8BE597E03D
:102960002DE133EF41E050E00E940A1549015A0180
:102970009B01AC01A7EAB1E40E9429156B017C011F
:10298000ACEEB4EFA50194010E943715DC01CB0138
:102990008C0D9D1DAE1DBF1DB7FF03C00197A10982
:1029A000B04888839983AA83BB83BC01CD019F77FC
:1029B000DF91CF91FF90EF90DF90CF90BF90AF90DD
:1029C0009F908F9008950E94981408958CE091E054
:1029D0000E949814089560930C0170930D018093E8
:1029E0000E0190930F010895F999FECF92BD81BD1C
:1029F000F89A992780B50895262FF999FECF1FBA26
:102A000092BD81BD20BD0FB6F894FA9AF99A0FBE17
:102A100001960895052E97FB1EF400940E9421153F
:102A200057FD07D00E943C1507FC03D04EF40C94D0
:102A3000211550954095309521953F4F4F4F5F4F51
:102A4000089590958095709561957F4F8F4F9F4F1A
:102A500008950E945E15A59F900DB49F900DA49FB0
:102A6000800D911D11240895B7FF0C9429150E9423
:102A70002915821B930B0895A1E21A2EAA1BBB1BDA
:102A8000FD010DC0AA1FBB1FEE1FFF1FA217B3073A
:102A9000E407F50720F0A21BB30BE40BF50B661F50
:102AA000771F881F991F1A9469F760957095809514
:102AB00090959B01AC01BD01CF010895A29FB0018B
:102AC000B39FC001A39F700D811D1124911DB29F62
:102AD000700D811D1124911D0895AA1BBB1B51E18E
:102AE00007C0AA1FBB1FA617B70710F0A61BB70B7E
:102AF000881F991F5A95A9F780959095BC01CD0123
:102B00000895EE0FFF1F0590F491E02D099481E0E8
:0C2B100090E0F8940C948C15F894FFCF22
:102B1C00FFFFFFFF00E100000000000001000000CB
:102B2C0000C1808100000000000000EE056F060F60
:102B3C00060406550613063106000000006B0D62F4
:102B4C000A8F0A8E0A5314FCFF0000951454697402
:0C2B5C006C652053637265656E0A000012
:00000001FF
